:400000000010002011000000F5010000F501000010B500F041FB00F0F5F8C04670B5114C12232360182000F0AFFA802252010E4B1A600E4A8023DB051A6000250C4B1D609E
:4000400040220C4B1A600C490B2000F00BFA0B2000F0FCF9094B1D60002000F025FB1123236070BD300010400003004040FF008028000340040100403D0700000C02064019
:4000800010B572B60A4A0B4B1A6000220A4B1A6020230A4A13600A490A4A11600A4A13600A4A0B4B1A60FFF7B9FF00F097F810BDEE0099000000024004013F4000000440A6
:4000C000361003000800044018000440B66D00000801044000000000000000000000000000000000000000000000000000000000000000000000000000000000000000009F
:4001000010B5064C2378002B07D1054B002B02D0044800E000BF0123237010BD2801002000000000E4080000084B10B5002B03D00749084800E000BF07480368002B00D10E
:4001400010BD064B002BFBD09847F9E7000000002C010020E4080000A80000200000000010B500F0A7F810BD10B500F01DF9C0B2134B1870002821D0124B1B88124AD054CE
:400180000D2817D110000024D454104B1A6000F021F90C4B1C8005E000210B4AD1540133084A1380074B1B88632BF5D901225242044B1A80034A13880133138010BDC046E8
:4001C000CC0100204401002064010020C801002010B5FFF7C5FFFFF7C7FFFCE70322034B1A601D32024B1A607047C04608013F40000E3F4010B500F049FB03680C2B00D1E0
:40020000FEE7FEE770B50F4E0F4D13E029686B68AC68002202E001C901C30432A242FAD1E868002202E0002102C304328242FAD11035013E002EE9D100F02EFBFFF7C8FFF3
:40024000FEE7C046010000001009000010B500230AE0032B03D89A000849505800E008489900084A88500133282BF2D9FFF708FF80229205044B1A6010BDC04600000000F4
:40028000F50100000000002008ED00E010B500F075F810BD10B500F01DF810BD10B5044A1368802109060B431360FFF7EFFF10BD0000084010B5064B1B78002B04D1FFF736
:4002C000E9FF0122024B1A70FFF7E8FF10BDC04646010020154A164B1A600023154A13601549164A1160164A16490A6007201649086016490B6006381549086015490A60FA
:40030000154A13600421154A1160154A1360154A1360154A1360154A1360154A1360154A13601268144B1A807047C0460B000002000008404000084001000A004800084062
:400340000700008000030840040308401003084044000840000208400402084050000840880E0840C80E0840480F0840080F0840C80F0840880F084048010020064A11681B
:40038000064B0B40902109040B431360044B1A88044B1A607047C04600000240FFFF0FFF48010020880F084010B500F02FFA002802D000F025FA00E00020054B1A68D82361
:4003C0009B001A4203D01A00014B1A60002010BDC00F084070B50500002402E000F01EFA0134285D0028F9D170BDC0460C4B1B689B001C22134018330A4A1268920803215B
:400400000A40D34008490868084A02400A60084A944663441B78DBB2064A13607047C046080F03402800034000000640FFFFFFBFCDF1FF0F0C0F0340034B18688023DB05EB
:40044000184000D001207047000006401F2318401E3B8340014A13607047C04600E100E001BE704770B504000D00182802D90020FFF7F6FF1034A40080239B059C466444BD
:400480002068256070BDC04610B5040006E0084B586800F0A5F9074B9C46644480231B029C42F4D8024B9868604300F099F910BDAC0000200080FFFF70B582B000F0E2F8BC
:4004C00000284DD000F095F90500264B1A6892001C231A401832244B1B689B0803210B40DA400021214B1960214C2168214B0B4021494A438021C9018C466244D20B013A09
:400500005205520D1343A0225203134323601B4B1B680193302000F08FF9194A13688021C9050B4313602668164B1E40002407E00120FFF7A9FF1034A30533430C4A13602A
:40054000EE2CF5D90120FFF79FFFFF239B051E43074B1E60019A094B1A60280000F04DF902B070BD080F0340280003400C0F03400800064000F800C040420F00300010400B
:4005800000000640FFFF3FC0F0B583B0040018280BD01C2809D0202807D0242805D0282803D02C2801D0302849D100F022F90190FFF742FF002803D0FFF718FF012600E008
:4005C0000026214A136807218B4313601F4BE3181B78DBB21E4A13601E4A13688B4313601D4803687F22934319001C4BE3181B7813400B430360322000F0F2F8182C16D94A
:40060000114F3B680725AB431A0023001C3B9B082B4013433B60322000F0E2F83A68AA432300183B9B082C001C4014433C60012E01D1FFF741FF019800F0DFF802E0002032
:40064000FFF70EFF03B0F0BD080F0340CDF1FF0F0C0F0340100F0340180F0340B4F1FF0F10B5034B1B7B584300F0BAF810BDC046AC000020024B1868800F80077047C046EF
:400680000C020640034B1B68002B01DA012000E00020704700000640014A024B1A6070476588EDAC3800034010B50400FFF7E2FFA0421AD0144A136803218B431360134B1F
:4006C0001B689B0F01D17C2001E086204000FFF7C7FF00F08EF80D4A13689B009B08A40FA4071C43146000F088F8074B1B6803229343064A1268920F01D1023200E0012271
:400700001343014A136010BD140206400C02064010B5040000F06DF8054B1C4005490B68054A134023430B600B6800F066F810BD0404040010020640FBFBFBFF10B5244B14
:400740001B685B0715D5234B1B685B070ED5224B5969042001401F4C22688A4322605A6982435A619B68002B00D098470420FFF7CFFF174B1B685B0518D5164B1B685B051E
:4007800010D5154B59698022D2001140114802688A4302605969114A0A405A61DB68002B00D098478020C000FFF7B2FF084B1B685B030CD5074B1B685B0304D5064B1B693F
:4007C000002B00D098478020C002FFF7A1FF10BD10020640C00000204C010020FFFBFFFF0230800803D001300238FCD1C046C0467047EFF3108072B6704780F31088704722
:40080000014B18687047C04640030840024B1B681F2018407047C04608030840044B1B681F221340082BF9D0024B18607047C046080208404002084070B50400FFF7D9FF76
:400840000500102C05D8104A136803218B43136016E0202C07D80C490B6803229343023A13430B600CE0302C07D807490B6803229343013A13430B6002E00020FFF7F0FD79
:400880002800FFF7BAFF70BD30001040014B18687047C046240100200E4B70B500251E000D4CE41AA410A54204D0AB00F35898470135F8E700F01AF8084B00251E00084C89
:4008C000E41AA410A54204D0AB00F35898470135F8E770BDF8080000F8080000F8080000000900000000000043000000F8B5C046F8BC08BC9E467047290100004D020000E9
:40090000F8B5C046F8BC08BC9E4670470101000020090000A800002080000000A800000000000000010000000000E02EC05D00001800000000366E010404040000000000E1
:4009400000000000000000000000000000000000000000000000000000000000E8080000000000000000000000000000000000000000000000000000000000000000000087
:4009800000000000000000000000000000000000000000000000000000000000C4000020000000000000000000000000000000000000000000000000000000000000000053
:4009C00000000000000000000000000000000000000000000000000000000000000000000000000000000000000000000000000000000000000000000000000000000000F7
:400A000000000000000000000000000000000000000000000000000000000000000000000000000000000000000000000000000000000000000000000000000000000000B6
:400A40000000000000000000000000000000000000000000000000000000000000000000000000000000000000000000000000000000000000000000000000000000000076
:400A80000000000000000000000000000000000000000000000000000000000000000000000000000000000000000000000000000000000000000000000000000000000036
:0200000490303A
:02000000C0112D
:0200000490402A
:200000000000000000000000000000000000000000000000000000000000000000000000E0
:0200000490501A
:0C00000000021C2021AC00011C22E1BD0C
:0200000490600A
:0100000001FE
:00000001FF